:020000040800F2
:1000000000000220FD3F0008690A00086B0A000892
:100010006D0A00086F0A0008710A0008000000005D
:10002000000000000000000000000000730A00084B
:10003000750A000800000000770A0008790A000825
:100040004D4000084D4000084D4000084D4000085C
:100050004D4000084D4000084D4000084D4000084C
:100060004D4000084D4000084D4000084D4000083C
:100070004D4000084D4000084D4000084D4000082C
:100080004D4000084D4000084D4000084D4000081C
:100090004D4000084D4000084D4000084D4000080C
:1000A0004D4000084D4000084D4000084D400008FC
:1000B0004D4000084D4000084D4000084D400008EC
:1000C0004D4000084D4000084D4000084D400008DC
:1000D0004D4000084D4000084D4000084D400008CC
:1000E0004D4000084D4000084D4000084D400008BC
:1000F0004D4000084D4000084D4000084D400008AC
:100100004D4000084D4000084D4000084D4000089B
:100110004D4000084D4000084D4000084D4000088B
:100120004D4000084D4000084D4000084D4000087B
:100130004D4000084D4000084D4000084D4000086B
:100140004D4000084D4000084D400008810A00085D
:100150004D4000084D4000084D4000084D4000084B
:100160004D4000084D4000084D4000084D4000083B
:100170004D4000084D4000084D40000800000000C0
:080180004D4000084D4000084D
:100188000348044B834202D0034B03B1184770471E
:100198000C0100200C010020000000000548064961
:1001A8000B1AD90F01EBA301491002D0034B03B17D
:1001B800184770470C0100200C01002000000000C7
:1001C80010B5064C237843B9FFF7DAFF044B13B197
:1001D8000448AFF300800123237010BD0C010020F8
:1001E800000000005040000808B5044B1BB104494A
:1001F8000448AFF30080BDE80840CFE700000000E6
:10020800100100205040000870B50D4E0D4D761BB2
:10021800B61006D00024013455F8043B9847A6428E
:10022800F9D1094E094D761B03F00EFFB61006D022
:100238000024013455F8043B9847A642F9D170BD13
:100248003C4100083C410008404100083C4100088E
:10025800F0B4860746D0541E002A3CD0CAB20346E2
:1002680002E014F1FF3436D303F8012B9D07F8D1CF
:10027800032C29D9CDB245EA05250F2C45EA0545B9
:1002880033D9A4F11006360903F1200707EB061746
:1002980003F1100242E9045542E902551032BA420C
:1002A800F8D1721C14F00C0F03EB021204F00F06C5
:1002B80013D0331F23F003030433134442F8045BC1
:1002C8009342FBD106F003042CB1C9B21C4403F8D5
:1002D800011B9C42FBD1F0BC704734461346002CEE
:1002E800F3D1F8E714460346C2E71A462646E0E784
:1002F80053B94AB9002908BF00281CBF4FF0FF3185
:100308004FF0FF3000F06EB9ADF1080C6DE904CE86
:1003180000F006F8DDF804E0DDE9022304B07047D8
:100328002DE9F047089D04468C46002B40F0838059
:100338008A42174647D9B2FA82F242B1C2F1200086
:1003480024FA00F09140974040EA010C94404FEAAB
:100358001748230CBCFBF8F61FFA87FE08FB16C1EA
:1003680043EA014306FB0EF1994209D9FB1806F14D
:10037800FF3080F01981994240F21681023E3B44D9
:100388005B1AA4B2B3FBF8F008FB103344EA034449
:1003980000FB0EFEA64509D93C1900F1FF3380F099
:1003A8000581A64540F2028102383C4440EA0640F5
:1003B800A4EB0E0400261DB1D4400023C5E9004378
:1003C8003146BDE8F08702B9FFDEB2FA82F2002AB0
:1003D80050D1CB1B4FEA174E1FFA87F80126B3FB03
:1003E800FEFC210C0EFB1C3341EA034108FB0CF315
:1003F8008B4207D979180CF1FF3002D28B4200F2F8
:10040800E9808446C91AA3B2B1FBFEF00EFB1011B5
:1004180043EA014408FB00F8A04507D93C1900F15C
:10042800FF3302D2A04500F2D9801846A4EB080495
:1004380040EA0C40BFE78B4209D9002D00F0B1809B
:100448000026C5E9000130463146BDE8F087B3FA19
:1004580083F6002E4AD18B4202D3824200F2B88042
:10046800841A61EB030101208C46002DA8D0C5E950
:10047800004CA5E7C2F1200320FA03F6974001FAE1
:1004880002F04FEA174ED9403043030CB1FBFEF699
:100498001FFA87F80EFB161143EA014306FB08F121
:1004A800994204FA02F409D9FB1806F1FF3C80F0DE
:1004B8008D80994240F28A80023E3B445B1A81B2A9
:1004C800B3FBFEF00EFB103341EA034100FB08F3D7
:1004D8008B4207D9791800F1FF3C73D28B4271D94E
:1004E80002383944CB1A40EA064678E7C6F1200CB0
:1004F80003FA06F422FA0CF31C4320FA0CF701FA6B
:1005080006F34FEA144E21FA0CF11F433B0CB1FBE2
:10051800FEF91FFA84F80EFB191143EA014109FBA1
:1005280008FA8A4502FA06F200FA06F308D96118B1
:1005380009F1FF3048D28A4546D9A9F10209214478
:10054800A1EB0A01BFB2B1FBFEF00EFB101147EAA6
:10055800014700FB08F8B84507D9E71900F1FF3152
:100568002ED2B8452CD90238274440EA0940A7EBD7
:100578000807A0FB02894F45C64649461AD317D03B
:100588005DB1B3EB0E0267EB010707FA0CFCF24012
:100598004CEA0202F740C5E9002700263146BDE8CB
:1005A800F0872E4628460BE70646E9E61846FDE69C
:1005B8004345E5D2B8EB020E69EB04010138DFE7E9
:1005C8000846D2E760468DE78146B9E7664675E793
:1005D80030464AE7ACF1020C394413E702383C4490
:1005E80024E700BF704700BF84B000220192104B7F
:1005F800196B41F004011963196B01F004010191B1
:1006080001990292196B41F080011963196B01F08D
:1006180080010291029903921A6B42F001021A6357
:100628001B6B03F001030393039B04B0704700BFE7
:100638000038024072B6FEE700B595B030220021BE
:1006480008A8FFF705FE0023039304930593069378
:10065800079301931F4A116C41F080511164126C89
:1006680002F080520192019A02931B4B1A6842F4DD
:1006780080421A601B6803F480430293029B0123A3
:1006880008934FF48033099302230E934FF48002AA
:100698000F9204221092482211921293032313936B
:1006A80008A802F0BDF880B90F2303930221049132
:1006B800002305934FF480520692079303A802F093
:1006C80011FB20B915B05DF804FBFFF7B3FFFFF786
:1006D800B1FF00BF003802400070004008B502F0CA
:1006E80031FDFFF7A9FFFFF77FFF00F0E9F94FF4AD
:1006F800FA6002F053FD802000F006F90E4800F081
:1007080027F9142002F04AFD0C4800F021F92820AE
:1007180000F092F94FF47A7002F040FD402000F0AA
:10072800F3F83D2000F088F900F0FEF84FF47A70F5
:1007380002F034FDFAE700BF684000086C4000088A
:10074800A0F12003DBB25E2B52D8A0F14103DBB24B
:10075800192B0ED9A0F16103DBB2192B0CD9A0F12A
:100768003003DBB2092B0AD8302843D01338C0B283
:1007780070473D38C0B270475D38C0B27047A0F1CD
:1007880020033D2B32D8DFE803F02F3131313131EE
:1007980031253131313129382B2D31313131313158
:1007A8003131313131233137313131313131313139
:1007B8003131313131313131313131313131313121
:1007C80031313131311F27212F20704730207047B8
:1007D80033207047342070473120704736207047E7
:1007E80037207047382070472C207047002070470A
:1007F80000207047272070472E20704708B5A0F1C9
:1008080021035C2B33D8DFE803F02F6B373B3F47DE
:10081800324F534B5B323232323232323232323230
:1008280032323267327332777B333232323232329B
:100838003232323232323232323232323232323290
:10084800323232323232324357323232323232324A
:100858003232323232323232323232323232323270
:10086800323232325F6F63003120FFF769FF08BD13
:100878003220FFF765FFFAE73320FFF761FFF6E75D
:100888003420FFF75DFFF2E73520FFF759FFEEE769
:100898003620FFF755FFEAE73720FFF751FFE6E775
:1008A8003820FFF74DFFE2E73920FFF749FFDEE781
:1008B8003020FFF745FFDAE72D20FFF741FFD6E7A5
:1008C8003D20FFF73DFFD2E75B20FFF739FFCEE77A
:1008D8005D20FFF735FFCAE73B20FFF731FFC6E78A
:1008E8002720FFF72DFFC2E75C20FFF729FFBEE7AF
:1008F8002C20FFF725FFBAE72E20FFF721FFB6E7E8
:100908002F20FFF71DFFB2E708B505490870082238
:10091800044803F051FB192002F040FC08BD00BF59
:10092800280100204801002008B5002304E0064AF9
:100938000021D1540133DBB2072BF8D90822024930
:10094800024803F039FB08BD2801002048010020B7
:100958002DE9F843814600252F461CE0082234493A
:10096800344803F029FB192002F018FCFFF7DCFFDC
:10097800192002F013FC00250DE008222C492D480F
:1009880003F01AFB192002F009FCFFF7CDFF19202C
:1009980002F004FC002519F80780B8F1000F44D0D4
:1009A8004046FFF7CDFE0446013719F80700FFF768
:1009B800C7FE064664B1AB1C1D4AD4540135062D4A
:1009C800CCD00028D9D0FFF719FF8442E3D1D4E76F
:1009D8004046FFF713FF164B98700135062D13D0CC
:1009E8000EB98642D7D1124920230B70082211482C
:1009F80003F0E2FA192002F0D1FBFFF795FF192066
:100A080002F0CCFB2546C6E7194620230B700822C6
:100A1800084803F0D1FA192002F0C0FBFFF784FF61
:100A2800192002F0BBFB2546B5E7BDE8F88300BFF7
:100A3800280100204801002008B5074988700822CD
:100A4800064803F0B9FA192002F0A8FBFFF76CFF7B
:100A5800192002F0A3FB08BD28010020480100204E
:100A6800FEE7FEE7FEE7FEE7FEE7704770477047E0
:100A780008B502F081FB08BD08B5024800F06FFD1B
:100A880008BD00BF2406002082B0002100910B4B56
:100A98005A6C42F480425A645A6C02F480420092C2
:100AA800009A01911A6C42F080521A641B6C03F090
:100AB80080530193019B02B0704700BF0038024089
:100AC80008B500220B490C4802F086FB48B90B49CF
:100AD800094802F098FB38B9074802F0AEFB30B974
:100AE80008BDFFF7A7FDF2E7FFF7A4FDF4E7FFF75E
:100AF800A1FDF5E700000020480100209800002033
:100B080012230B80004870471C00002004230B8030
:100B180000487047300000200023934217D230B4B9
:100B28000BE0373401F8134000015C000134002564
:100B38000D550133DBB2934207D2040FB0F1204FB9
:100B4800EFD2303401F81340EEE730BC70477047FD
:100B580038B50A4B186804331C6804331B68C0187E
:100B680000D138BD064D0822A91CFFF7D5FF042285
:100B780005F112012046FFF7CFFFF2E7107AFF1FB9
:100B88003400002008B51A230B80FFF7E1FF014865
:100B980008BD00BF3400002008B50A4628B9054939
:100BA800054803F0A6F8034808BD0249024803F0C7
:100BB800A0F8F8E724040020DC40000810B50A4635
:100BC800034C2146034803F094F8204610BD00BFAB
:100BD80024040020F440000808B50A4628B905494D
:100BE800054803F086F8034808BD0249024803F0A7
:100BF80080F8F8E7240400200841000808B50A46F0
:100C080028B90549054803F074F8034808BD0249A6
:100C1800024803F06EF8F8E72404002014410008A5
:100C280030B589B000230393049305930693079383
:100C38000368B3F1A04F01D009B030BD002501957C
:100C4800174C236B43F001032363236B03F0010369
:100C58000193019B4FF4C05303930223049305951A
:100C6800032306930A23079303A90E4802F0F0F81A
:100C7800636B43F0800363630295636C43F48043C2
:100C88006364636C03F480430293029B2A462946FB
:100C9800432002F0D9F9432002F00AFACCE700BF5A
:100CA800003802400000024008B500F2C441D0F804
:100CB800080502F0D8FA08BD08B501EBC10300EB3E
:100CC8008303D3F88C22D0F8080502F099FB08BDFD
:100CD80008B501EBC10300EB8303DA6CD0F8080513
:100CE80002F0F7FB08BD08B5D0F8080502F033FBA1
:100CF80008BD10B50446C3683BB1022B01D10121E0
:100D080004E0FFF797FC012100E00021D4F8080572
:100D180002F007FBD4F8080502F0D1FA10BD000074
:100D280010B50446D0F8080502F0FEFA2268D2F899
:100D3800003E43F00103C2F8003E236A23B1034A90
:100D4800136943F00603136110BD00BF00ED00E016
:100D580008B5D0F8080502F0F1FA08BD08B5D0F8D2
:100D6800080502F020FB08BD08B5D0F8080502F018
:100D780003FB08BD08B5D0F8080502F02BFB08BD39
:100D880008B5D0F8080502F027FB08BD02780AB1BB
:100D98000020704710B503461548C0F80835C3F859
:100DA800C8024FF0A0430360042343600222C260DC
:100DB800002303618261C36103624362C362036308
:100DC80000F0EBF880B90A4C8021204600F0E7FEDD
:100DD80040220021204600F0BEFE8022012120464C
:100DE80000F0B9FE002010BDFFF724FCEBE700BFC0
:100DF80024060020D0F8C83211F0800F08D101F085
:100E08007F0101EBC10103EB810191F87E0270477C
:100E180001F07F0101EBC10103EB810191F83E0074
:100E280070470000004870473001002070470328D1
:100E380005D8DFE800F0050402050120704703200B
:100E4800704708B5D0F8C80200F03AF9FFF7EFFF8D
:100E580008BD10B514461A462346D0F8C80200F05B
:100E68000FFAFFF7E4FF10BD08B5D0F8C80200F08C
:100E78004AFAFFF7DCFF08BD08B5D0F8C80200F051
:100E8800D5FAFFF7D4FF08BD08B5D0F8C80200F0BE
:100E980011FBFFF7CCFF08BD08B5D0F8C80200F079
:100EA800DBF9FFF7C4FF08BD08B5D0F8C80200F0A9
:100EB80092FAFFF7BCFF08BD08B5D0F8C80200F0E9
:100EC8005BFAFFF7B4FF08BD2DE9F04782B0D0F810
:100ED800008001EBC10300EB8303DA6D5B6D9A427E
:100EE80055D807460C46C1469B1A01EBC10200EBD8
:100EF8008202926C9A4200D31A4602F1030A4FEA20
:100F08009A0A15E006F1030A4FEA9A0A04EBC405A7
:100F180007EB8505E96C3B7C0093B3B2E2B240462F
:100F280001F009FAEB6C3344EB64EB6D1E44EE659B
:100F380009EB441303F510639B699BB2534512D325
:100F480004EBC40207EB8202D16D536D99420AD2B9
:100F58004BB15B1A04EBC40207EB8202966C9E420B
:100F6800D0D31E46CEE704EBC40007EB80077A6DAA
:100F7800FB6D9A420FD804F00F040123A340D8F860
:100F8800344824EA0304C8F83448002000E001206B
:100F980002B0BDE8F0870020FAE7F0B58BB0002872
:100FA80000F08C800546046890F8BD342BB3032309
:100FB80085F8BD34E36B13F4807F01D100232B61E6
:100FC800286800F0D7FE2C4654F8107B6E460FCCEC
:100FD8000FC60FCC0FC694E8030086E803002B1D4C
:100FE8000ECB384600F008FE044658B1022385F8B7
:100FF800BD34012420460BB0F0BD80F8BC34FFF7A7
:101008000FFED4E70021286801F098FB234616E07C
:1010180003EBC30205EB8202012182F83D1082F83E
:101028003C30A2F84430002182F840109164D16429
:1010380003EBC30205EB820251650133DBB2696839
:101048008B42E5D316E004EBC40305EB83030022CF
:1010580083F87D2283F87C4283F88022C3F88822B3
:10106800C3F88C2204EBC40305EB8303C3F8942272
:101078000134E4B2A142E6D82C4654F8107B6E46FF
:101088000FCC0FC60FCC0FC694E8030086E8030008
:101098002B1D0ECB384600F0C9FE044620B10223B2
:1010A80085F8BD340124A5E7002385F838300123ED
:1010B80085F8BD34286801F0FEFA9BE7012499E71A
:1010C800026890F8BC34012B19D010B504460123EE
:1010D80080F8BC34836A012B09D0206800F044FEF4
:1010E800206801F0DAFA002084F8BC0410BD836996
:1010F800012BF2D0936B43F480339363EDE7022026
:101108007047000070B504460D460068066C00EB99
:10111800411303F530639A682169012911D03849D0
:101128008E4256D03DB905EBC50304EB8303D3F8D3
:101138009432002B5ED0E9B22046FFF7BDFD0020B7
:1011480070BD12F0080F09D02E498E42F7D912F45B
:10115800004FF4D04FF400429A60F0E712F0200FED
:1011680002D020229A60EAE712F0280FE7D1254939
:101178008E4206D912F4004F03D04FF400429A6011
:10118800DDE705EBC50204EB8202D2F898121B6971
:10119800C3F31203CB1AC2F89C327DB905EBC50222
:1011A80004EB8202D2F894226AB105EBC50204EB83
:1011B8008202D2F88C120B44C2F88C32E9B2204673
:1011C800FFF77AFDBBE704F2C442012101F0F8FA07
:1011D800F4E712F4004F03D04FF400429A60AEE7F0
:1011E80012F0200F01D020229A60E9B22046FFF7C2
:1011F80063FDA4E704F2C442002101F0E1FA9AE792
:101208000A31544F0A30544F38B5044603681D6CF0
:1012180003EB4113D3F8081B0E4A954207D903F58F
:10122800306311F4004F02D04FF400429A60204618
:10123800FFF73AFD074B9D4202D92369012B01D0E4
:10124800002038BD04F2C4420121206801F0B8FA38
:10125800F6E700BF0A30544F90F8BC34012B0DD08C
:1012680010B50446012380F8BC3480F838100068B3
:1012780001F003FA002084F8BC0410BD0220704776
:10128800F8B507460C4611F0800F27D101F00F057D
:1012980005EBC506B60006F51E760644311D05EBBE
:1012A800C50500EB8505002085F87D0204F00F04D4
:1012B8000C70CA600B714A7802B10C81022B1DD0E8
:1012C80097F8BC34012B1CD0012387F8BC3438684C
:1012D80000F089FE002087F8BC04F8BD01F00F007B
:1012E80000EBC001890038313944043100EBC000FB
:1012F80007EB8000012580F83D50D7E700234B71AC
:10130800DEE70220E9E710B504460A4611F0800F2F
:1013180020D101F00F0000EBC0039B0003F51E7302
:101328002344191D00EBC00004EB8000002380F863
:101338007D3202F00F020A7094F8BC34012B19D0E8
:10134800012384F8BC34206800F098FE002084F85B
:10135800BC0410BD01F00F0000EBC0039B00383344
:101368002344191D00EBC00004EB8000012380F822
:101378003D30DEE70220ECE738B501F00F0404EB5E
:10138800C401890001F51E710144043104EBC40550
:1013980000EB8505C5F88C22C5F894320023C5F802
:1013A8009C3285F87D3285F87C420369012B06D092
:1013B80064B9DAB2006800F0CFFE002038BD04EB53
:1013C800C40500EB8505C5F89022F1E7DAB200689C
:1013D80000F0C6FFF1E738B501F00F0404EBC401D3
:1013E800890038310144043104EBC40500EB85055C
:1013F800EA646B650023EB65012385F83D3085F8C9
:101408003C400369012B06D05CB9DAB2006800F0F1
:10141800A3FE002038BD04EBC40500EB85052A6552
:10142800F2E7DAB2006800F09BFFF2E738B501F0A6
:101438000F054268954239D804460B4611F0800FD3
:101448001FD101EBC101890001F51E71014404316E
:1014580003EBC30300EB8303002283F87D220123FF
:101468008B700D7094F8BC34012B21D0012384F8C3
:10147800BC34206801F0A6F88DB1002084F8BC04C3
:1014880038BD05EBC501890038310144043105EB4D
:10149800C50300EB8303012283F83D20DFE704F254
:1014A800C442217C206801F08BF9E6E70120E7E7D8
:1014B8000220E5E701F00F034268934231D810B5E6
:1014C800044611F0800F1ED103EBC301890001F51A
:1014D8001E710144043103EBC30200EB82020020B9
:1014E80082F87D0200228A700B7094F8BC34012BBC
:1014F80019D0012384F8BC34206801F090F800204A
:1015080084F8BC0410BD03EBC301890038310144E1
:10151800043103EBC30200EB8202012082F83D0094
:10152800E0E7012070470220ECE708B511F0800FD2
:101538000CD101F00F0101EBC101890001F51E7109
:1015480001440431006800F097FE08BD01F00F0166
:1015580001EBC1018900383101440431F2E72DE97A
:10156800F04F83B004460668304601F0E3F810B146
:1015780003B0BDE8F08F35460746206801F0A9F8AA
:101588000028F5D006F5006BDBF80830C3F30D230F
:10159800C4F8FC34206801F09CF810F0020F04D065
:1015A8002268536903F002035361206801F091F83F
:1015B80010F0100F13D02268936923F01003936181
:1015C800D6F8208008F00F09C8F34343022B4CD00B
:1015D800062B72D02268936943F010039361206848
:1015E80001F077F810F4002F79D1206801F071F834
:1015F80010F4802F40F0E680206801F06AF8002897
:10160800C0F26C81206801F064F810F4006F0AD011
:10161800DBF8083013F0010F40F07A812268536933
:1016280003F400635361206801F053F810F4805FFD
:1016380040F07281206801F04CF810F4005F40F02F
:10164800C981206801F045F810F0080F40F0DA81F0
:10165800206801F03EF810F0800F00F0ED81B369CA
:1016680023F08003B3610127DAE147F6F07318EA43
:10167800030FAFD04FEA181300934FEAC902019243
:1016880009EBC90A04EB8A0AC8F30A12DAF88C12C1
:10169800304600F071FF009BC3F30A02DAF88C327F
:1016A8001344CAF88C32019B4B4404EB8303D3F8F0
:1016B8009C321A44CAF89C228CE7082204F2C441DE
:1016C800304600F059FFC8F30A1809EBC90204EBC9
:1016D8008202D2F89C324344C2F89C327AE72068EE
:1016E80000F0FBFF8046B94635E005EB49130122BF
:1016F800C3F8082B49462046FFF704FD3DE005EBFB
:1017080049130822C3F8082B49462046FFF77CFDF9
:1017180036E009EBC90304EB830393F87F32012B0E
:1017280044D005EB49130222C3F8082B1AF0200F06
:1017380004D005EB49132022C3F8082B1AF4005FE4
:1017480005D005EB49134FF40052C3F8082B09F1F3
:1017580001094FEA5808B8F1000F3FF446AF18F0F6
:10176800010FF4D05FFA89F300931946206800F05E
:10177800C4FF824610F0010FB7D11AF0080FBED18E
:101788001AF0100F04D005EB49131022C3F8082BE8
:101798001AF0020FCAD0736913F0800FB9D0DBF8C2
:1017A800043043F48063CBF80430B2E709EBC90393
:1017B80004EB8303002283F87F2200992046FFF779
:1017C800CDFAAEE7206800F090FF8046B94625E0E4
:1017D80000992046FFF77CFA1AF0080F04D005EBB1
:1017E80049130822C3F808291AF0100F04D005EB92
:1017F80049131022C3F808291AF0400F04D005EB4A
:1018080049134022C3F808291AF0020F43D11AF0ED
:10181800800F5ED109F101094FEA5808B8F1000FAD
:101828003FF4EAAE18F0010FF4D05FFA89F30093A1
:101838001946206800F06AFF824610F0010FCBD0ED
:1018480009F00F03012101FA03F2DBF8343023EA2F
:101858000203CBF8343005EB4913C3F808192369A0
:101868008B42B5D109EBC90304EB8303996CDA6C9D
:101878000A44DA64B9F1000FAAD109EBC90304EBF1
:1018880083035B6D002BA3D104F2C44201212068BD
:1018980000F096FF9CE74946304600F071FA09EBE4
:1018A800C90304EB830393F83F30012B05D005EB04
:1018B80049130222C3F80829A9E709EBC90304EB75
:1018C8008303002283F83F2000992046FFF74CFA53
:1018D800EDE749462046FFF7F7FA9BE7DBF80430C7
:1018E80023F00103CBF8043094F8F434012B08D02A
:1018F8002046FFF72DFA2268536903F0004353612D
:1019080080E6002184F8F414204600F04CF9F2E750
:101918002046FFF705FA81E6DBF8043023F00103DF
:10192800CBF804301021206800F02AFA1AE005EB01
:1019380047134FF67F31C3F80819D3F8002922F46A
:101948000012C3F80029C3F8081BD3F8002B22F4AF
:101958000012C3F8002BD3F8002B42F00062C3F842
:10196800002B01376368BB42E1D8DBF81C3043F039
:101978000113CBF81C30236BEBB1DBF8843043F058
:101988000B03CBF88430DBF8443043F00B03CBF87F
:101998004430D6F8003823F4FE63C6F8003804F261
:1019A800C442217C206800F00BFF2268536903F4CD
:1019B800805353613EE6DBF8143043F4005343F0A0
:1019C8002B03CBF81430DBF8103043F00B03CBF8C3
:1019D8001030DEE7206800F0E2FE206800F0F2FA3E
:1019E800E060276801F02EFA0146227B384600F0B5
:1019F80049F92046FFF77DF92268536903F400533B
:101A080053611EE62046FFF76EF92268536903F01A
:101A1800080353611CE6F9B22046FFF786FD01373B
:101A28006368BB4208D907EBC70304EB830393F849
:101A38007F32012BF3D1EEE7206800F04AFE10F464
:101A4800801F3CD1206800F044FE10F4001F73D1C1
:101A5800206800F03EFE10F0804F6FD1206800F043
:101A680038FE10F0040F3FF483AD23685D6815F06D
:101A7800040F6CD1226853682B43536078E5013713
:101A88006368BB421DD905EB4713D3F8002907EB60
:101A9800C70304EB830393F84030012BEFD1002AEE
:101AA800EDDA07EBC70304EB8303012283F83F2039
:101AB80067F07F01C9B22046FFF737FDDFE701274E
:101AC800DEE72268536903F480135361BAE70133F0
:101AD80062689A422AD905EB4312D2F8001B03EB3D
:101AE800C30204EB820292F88022012AEFD1002976
:101AF800EDDA01F48031D4F8FC2402F001029142BD
:101B0800E5D103EBC30204EB8202012182F87F12C4
:101B1800B26942F08002B261726912F0800FD6D1C8
:101B2800DBF8043043F40073CBF8043022685369BF
:101B380003F4001353618BE70123C9E72046FFF73D
:101B480019F92268536903F08043536186E72046F8
:101B5800FFF716F98EE730B40468606A19B940EAED
:101B68000240A06218E00D46A36A00EB1340002370
:101B7800691E8B4209D203F1400104EB81014968D7
:101B880000EB11400133DBB2F2E740EA024005F115
:101B98003F0104EB81014860002030BC70470368B6
:101BA800596200207047704782B000230193019B5F
:101BB80001330193019A0F4B9A4215D80369002B00
:101BC800F5DA00230193036943F001030361019BE4
:101BD80001330193019A074B9A4208D8036913F01D
:101BE800010FF4D1002000E0032002B07047032069
:101BF800FBE700BF400D030084B010B5044603A8FE
:101C080080E80E00089B012B1FD1A36B23F48033BF
:101C1800A363E36823F4840323F04003E360E368E9
:101C280023F44013E3600F9B012B09D02046FFF7F4
:101C3800BBFF069B012B1BD0BDE8104004B07047CA
:101C4800E36843F48013E360F0E7E36843F040039C
:101C5800E3602046FFF7A8FF0C9B23B9A36B43F46E
:101C68008033A363E5E7A36B23F48033A363E0E742
:101C7800A36843F00603A360A36843F02003A360AE
:101C8800DAE70000022A0AD00921C26822F4705259
:101C9800C260C36843EA8123C36000207047234BB6
:101CA8000B44234A93422FD9224B0B44224A934296
:101CB8002CD9A1F57403A3F51053204A934227D9D0
:101CC800A1F18373A3F5E7431D4A934222D31D4B29
:101CD8000B441D4A93421FD91C4B0B441C4A934288
:101CE8001CD31C4B0B441C4A934219D3A1F1B77364
:101CF800A3F55853194A934214D3194B0B44194A64
:101D0800934211D20721C0E70F21BEE70E21BCE79D
:101D18000D21BAE70C21B8E70B21B6E70A21B4E791
:101D28000921B2E70821B0E70621AEE7405327FFB3
:101D3800FF340C00401E1BFF3F420F007F4F120074
:101D480020D6130060B6E5FE5FE3160000D3CEFE92
:101D580040771B00C05BB3FEC0912100207538009E
:101D6800E05459FEE09C4100836843F0010383601E
:101D780000207047836823F00103836000207047C8
:101D880082B000230193019B01330193019A0F4B09
:101D98009A4215D80369002BF5DA002301938901CB
:101DA80041F020010161019B01330193019A074B26
:101DB8009A4208D8036913F0200FF4D1002000E0FC
:101DC800032002B070470320FBE700BF400D03006B
:101DD80082B000230193019B01330193019A0E4BBA
:101DE8009A4213D80369002BF5DA002301931023D4
:101DF8000361019B01330193019A074B9A4208D86A
:101E0800036913F0100FF4D1002000E0032002B0A2
:101E180070470320FBE700BF400D0300D0F80038EF
:101E28001943C0F8001800207047000084B02DE95D
:101E3800F843044609A880E80E002546002306E07A
:101E480003F1400204EB82020021516001330E2BA2
:101E5800F6D9DDF84C80B8F1000F24D1D4F8043855
:101E680043F00203C4F80438A36B43F40013A363DC
:101E7800A36B23F40023A363A36B23F48023A3633E
:101E88000023C4F8003E04F50066D4F80038C4F80E
:101E980000380E9B012B14D10B9B6BB900212046F7
:101EA800FFF7BCFF11E0A36B23F40013A363A36B3C
:101EB80043F40023A363E3E701212046FFF7AEFFC5
:101EC80003E003212046FFF7A9FF10212046FFF772
:101ED80057FF814608B14FF001092046FFF778FF08
:101EE80008B14FF00109002333617361F3610AE01F
:101EF800C3B94FF00060C2F8000900220A614FF62A
:101F08007F328A600133099F9F4210D905EB431243
:101F180002F51061D2F800090028E9DB0020C2F8B8
:101F28000009EAE74FF09040C2F80009E5E700230E
:101F38000AE0BBB14FF09040C2F8000B00220A61E2
:101F48004FF67F328A6001339F4210D905EB431266
:101F580002F53061D2F8000B0028EADB0020C2F855
:101F6800000BEBE74FF00060C2F8000BE6E73369BF
:101F780023F4807333610023A3616FF080436361AE
:101F88000C9B1BB9A36943F01003A361A2690C4B16
:101F98001343A3610F9B1BB1A36943F00803A3611B
:101FA800B8F1010F04D04846BDE8F84304B07047C3
:101FB800A36943F0804343F00403A361F3E700BF40
:101FC80000383C80D0F8083813F0060307D0022BFD
:101FD80007D0062B01D00F20704702207047002041
:101FE80070470220704770B40C784B78012B22D0D0
:101FF800D0F81C3804F00F060122B24043EA02432D
:10200800C0F81C3800EB4410D0F8003B13F4004F24
:102018000ED1D0F8003BCA68C2F30A02097942EA35
:102028008142134343F0805343F40043C0F8003B1C
:10203800002070BC7047D0F81C2804F00F06B3408D
:102048009BB21343C0F81C3800EB4410D0F8003999
:1020580013F4004FECD1D0F80039CA68C2F30A0271
:10206800097942EA814242EA84541C4344F080548C
:1020780044F40044C0F80049DAE7000030B40B78B3
:102088004A78012A24D000EB4313D3F8002B002A06
:1020980050DBD0F83C580A7802F00F02012404FA09
:1020A80002F225EA0242C0F83C28D0F81C28097838
:1020B80001F00F018C4022EA0444C0F81C48D3F810
:1020C800001B234A0A40C3F8002B002030BC70478D
:1020D80000EB4313D3F80029002A1EDBD0F83C5844
:1020E8000A7802F00F02012404FA02F292B225EAF9
:1020F8000202C0F83C28D0F81C28097801F00F012A
:102108008C40A4B222EA0404C0F81C48D3F8001991
:10211800104A0A40C3F80029D7E7D3F8002942F04B
:102128000062C3F80029D3F8002942F08042C3F8BE
:102138000029D3E7D3F8002B42F00062C3F8002B44
:10214800D3F8002B42F08042C3F8002BA1E700BF70
:102158000078F3EF007833EC70B40B784C78012CEE
:1021680028D000EB431000F530631C69E40CE4044C
:102178001C611C6924F0FF5424F4C0141C618C6990
:102188000CB1CC688C61CC68CC611C6944F4002427
:102198001C611C69CD69C5F312052C431C61012A19
:1021A80065D0D0F8003B43F00443C0F8003B002062
:1021B80070BC70478C696CBB00EB4314D4F81059A1
:1021C80025F0FF5525F4C015C4F81059D4F8105956
:1021D80045F40025C4F81059D4F81059ED0CED0455
:1021E800C4F81059012A33D000EB4313D3F800295F
:1021F80042F00442C3F800298B69002BD7D0D0F8ED
:1022080034380A7802F00F0101228A401343C0F8DB
:102218003438CCE700EB431404F510642569ED0C61
:10222800ED042561256925F0FF5525F4C0152561C4
:102238008E69CD68AE4200D98D61256945F40025C7
:10224800256125698E69C6F3120635432561C9E7FC
:102258004A691AB100EB4311C1F8142900EB431085
:10226800D0F8002942F00442C0F800299FE70A6923
:10227800002A96D05A6194E730B482B0034600220F
:1022880001920446487801280AD00A7803EB4212E2
:10229800D2F8000B00282CDB002002B030BC7047BD
:1022A8000A7803EB4212D2F80059002D01DB002016
:1022B800F3E7D2F8005945F00065C2F800590A78EA
:1022C80003EB4213D3F8002942F08042C3F80029F7
:1022D800019B01330193019A42F210739A42DCD8B0
:1022E8000B7804EB4313D3F80039002BF0DB002004
:1022F800D3E7D2F8000B40F00060C2F8000B087872
:1023080003EB4013D3F8002B42F08042C3F8002BB4
:10231800019B01330193019A42F210739A4208D843
:102328000B7804EB4313D3F8003B002BF0DB0020C1
:10233800B3E70120B1E770B49DF80C4064B90333EA
:102348009D08AC4208D200EB023303F5805351F8E4
:10235800046B1E600134F4E7002070BC7047000075
:10236800F0B583B00B784C78012C2BD000EB4313DD
:1023780003F530642569ED0CED042561256925F028
:10238800FF5525F4C01525618D69002D40F0C380E7
:102398002569CE68C6F3120635432561256945F4DB
:1023A80000252561012A00F0CC800A79012A00F075
:1023B800CE80D3F8002B42F00442C3F8002B002053
:1023C80003B0F0BD8C6984BB00EB4314D4F81059FA
:1023D80025F0FF5525F4C015C4F81059D4F8105944
:1023E80045F40025C4F81059D4F81059ED0CED0443
:1023F800C4F81059012A4CD000EB4313D3F8004914
:1024080044F00444C3F800490C79012C6AD08B6964
:10241800002BD4D0D0F83428097801F00F0401211A
:10242800A1400A43C0F83428C9E700EB4314D4F8A4
:102438001059ED0CED04C4F81059D4F8105925F0D2
:10244800FF5525F4C015C4F81059D4F810698D69E2
:10245800CF683D44013DB5FBF7F5464F07EAC54552
:102468003543C4F81059D4F810598E69C6F31206CA
:102478003543C4F8105904F510640D79012DB9D10C
:10248800256925F0C0452561256945F00055256178
:10249800B0E74A691AB100EB4314C4F814290A7961
:1024A800012A08D000EB4313D3F8002942F0044274
:1024B800C3F8002983E7D0F8082812F4807F08D1F0
:1024C80000EB4311D1F8002942F00052C1F800296D
:1024D800E8E700EB4311D1F8002942F08052C1F837
:1024E8000029DFE7D0F8084814F4807F0CD1D3F82E
:1024F800004944F00054C3F8004900920B8B0A7855
:102508000969FFF718FF5AE7D3F8004944F08054E7
:10251800C3F80049F1E7CE683544013DB5FBF6F54F
:10252800AFB206FB07F6CE612669124F07EAC5452A
:10253800354325612569CE69C6F312063543256101
:1025480030E70A69002A3FF430AF62612DE7D0F81E
:10255800082812F4807F06D1D3F8002B42F00052ED
:10256800C3F8002B25E7D3F8002B42F08052C3F8BC
:10257800002B1EE70000F81FF0B482B0074608469B
:102588003E46950802F003020023AB4206D206F548
:102598008054246840F8044B0133F6E77AB107F514
:1025A80080573B6801930025EBB2DC00019BE340B8
:1025B80000F8013B0135013A92B2002AF4D102B089
:1025C800F0BC70470B784A78012A14D000EB43100E
:1025D800D0F8002B002A06DB2BB1D0F8003B23F003
:1025E8008043C0F8003BD0F8003B43F40013C0F828
:1025F800003B0020704700EB4310D0F80029002A68
:1026080006DB2BB1D0F8003923F08043C0F800393D
:10261800D0F8003943F40013C0F80039E9E70B7823
:102628004A78012A0ED000EB4310D0F8003B23F47F
:102638000013C0F8003B0B79023BDBB2012B15D924
:102648000020704700EB4310D0F8003923F4001342
:10265800C0F800390B79023BDBB2012BF0D8D0F877
:10266800003943F08053C0F80039E9E7D0F8003B5F
:1026780043F08053C0F8003BE2E7D0F8003823F479
:10268800FE63C0F80038D0F80038090101F4FE6193
:102698001943C0F8001800207047D0F8003E23F016
:1026A8000303C0F8003ED0F8043823F00203C0F852
:1026B800043800207047D0F8003E23F00303C0F828
:1026C800003ED0F8043843F00203C0F80438002074
:1026D80070474269806910407047D0F8183800F593
:1026E8000060C0691840000C7047D0F8183800F531
:1026F8000060C069184080B2704700EB4111D1F802
:10270800082B00F5006040691040704710B4D0F8FD
:102718001048D0F8343801F00F02D340DB01DBB2A7
:10272800234300EB411000F51060806818405DF805
:10273800044B7047406900F00100704738B5054602
:10274800C36823F0C043C360012913D019BBC36811
:1027580043F08043C3600024012000F01FFD0134D2
:102768002846FFF7E7FF08B1312CF5D9322C14D0F1
:10277800002038BDC36843F00053C3600024012023
:1027880000F00CFD01342846FFF7D4FF0128EDD0F6
:10279800312CF4D9EAE70120EBE70120E9E7D0F88A
:1027A800003923F4FF6323F00703C0F80039D0F899
:1027B800043843F48073C0F80438002070470000E0
:1027C80010B4046C154B9C4203D9D0F8003B002B85
:1027D80016DB0024C0F8104BD0F8104B44F400244A
:1027E800C0F8104BD0F8104B44F01804C0F8104B48
:1027F800D0F8104B44F0C044C0F8104B012903D066
:1028080000205DF8044B7047C0F8142BD0F8003B4B
:1028180043F08023C0F8003BF2E700BF0A30544F72
:10282800002800F0DF8170B582B00446036813F019
:10283800010F3BD0A64B9B6803F00C03042B2CD054
:10284800A34B9B6803F00C03082B21D06368B3F5F6
:10285800803F4FD0B3F5A02F52D09D4B1A6822F479
:1028680080321A601A6822F480221A606368002B8A
:1028780050D000F08DFC0546954B1B6813F4003FC3
:1028880014D100F085FC401B6428F5D90320B0E181
:102898008F4B5B6813F4800FD8D08D4B1B6813F4F3
:1028A800003F03D06368002B00F09E81236813F07B
:1028B800020F54D0864B9B6813F00C0F3ED0844B0C
:1028C8009B6803F00C03082B33D0E368002B67D018
:1028D800804B01221A6000F05BFC05467C4B1B68AC
:1028E80013F0020F53D100F053FC401B0228F5D916
:1028F80003207EE1764A136843F480331360B5E71A
:10290800734B1A6842F480221A601A6842F48032C3
:102918001A60ABE700F03CFC05466D4B1B6813F4EE
:10292800003FC3D000F034FC401B6428F5D90320D5
:102938005FE1674B5B6813F4800FC6D1644B1B687B
:1029480013F0020F03D0E368012B40F04F81604A77
:10295800136823F0F803216943EAC103136023686D
:1029680013F0080F40D0636963B35B4B01221A6010
:1029780000F00EFC0546564B5B6F13F0020F33D187
:1029880000F006FC401B0228F5D9032031E1504A2B
:10299800136823F0F803216943EAC1031360DEE7F3
:1029A8004C4B00221A6000F0F3FB0546484B1B68AD
:1029B80013F0020FD3D000F0EBFB401B0228F5D92F
:1029C800032016E1444B00221A6000F0E1FB0546A3
:1029D8003F4B5B6F13F0020F06D000F0D9FB401B92
:1029E8000228F5D9032004E1236813F0040F78D0F6
:1029F800374B1B6C13F0805F0DD100230193344BD0
:102A08001A6C42F080521A641B6C03F080530193D5
:102A1800019B012500E00025304B1B6813F4807FE3
:102A280021D0A368012B32D0052B36D0284B1A6F42
:102A380022F001021A671A6F22F004021A67A368CB
:102A4800002B34D000F0A4FB0646214B1B6F13F07B
:102A5800020F45D100F09CFB801B41F2883398425D
:102A6800F3D90320C5E01D4A136843F4807313604B
:102A780000F08EFB0646194B1B6813F4807FD0D1FB
:102A880000F086FB801B0228F5D90320B1E0104A2C
:102A9800136F43F001031367D1E70D4B1A6F42F030
:102AA80004021A671A6F42F001021A67C7E700F0BA
:102AB8006FFB0646064B1B6F13F0020F10D000F099
:102AC80067FB801B41F288339842F3D9032090E0DA
:102AD8000038024000004742800E47420070004024
:102AE800EDB9A369002B00F08380494A926802F08F
:102AF8000C02082A51D0022B17D0464B00221A602C
:102B080000F046FB0446424B1B6813F0007F42D09E
:102B180000F03EFB001B0228F5D9032069E03C4A7F
:102B2800136C23F080531364DBE73A4B00221A60DE
:102B380000F02EFB0546364B1B6813F0007F06D0CD
:102B480000F026FB401B0228F5D9032051E0E36979
:102B5800226A1343626A43EA8213A26A5208013A5C
:102B680043EA0243E26A43EA0263294A5360294B73
:102B780001221A6000F00CFB0446254B1B6813F079
:102B8800007F06D100F004FB001B0228F5D90320C2
:102B98002FE000202DE000202BE0012B2BD01C4B38
:102BA8005B6803F48001E269914226D103F03F0299
:102BB800216A8A4223D1616A47F6C0721A40B2EB91
:102BC800811F1ED103F44031A26A5208013AB1EBC9
:102BD800024F18D103F07063E26AB3EB026F14D1AD
:102BE800002006E001207047012002E0012000E0FB
:102BF800002002B070BD0120FBE70120F9E70120A9
:102C0800F7E70120F5E70120F3E70120F1E700BF2E
:102C18000038024060004742F8B52F4B9B6803F02C
:102C28000C03042B53D0082B53D12B4B5A6802F0BA
:102C38003F025B6813F4800F28D0274B5B68C3F30F
:102C4800881358010021C01A61F100018E0146EA7B
:102C5800906687013C1A66EB0105E90041EA547168
:102C6800E000C01841F100014B0243EAD05344028E
:102C7800204619460023FDF73BFB174B5B68C3F35F
:102C8800014301335B00B0FBF3F023E0124B5B68B8
:102C9800C3F388135C010025E41A65F10005AE0151
:102CA80046EA9466A701381B66EB0501CC0044EAA6
:102CB8005074C500E81844F100018B0243EA9053B0
:102CC8008402204619460023FDF712FBD5E7034886
:102CD80000E00348F8BD00BF0038024000127A0047
:102CE8000024F400002800F09B8070B50D460446CF
:102CF8004F4B1B6803F007038B4208D2CBB24C4AF8
:102D08001370136803F007038B4240F08B8023682D
:102D180013F0020F17D013F0040F04D0454A93683C
:102D280043F4E0539360236813F0080F04D0414A3A
:102D3800936843F4604393603E4A936823F0F0033A
:102D4800A1680B439360236813F0010F32D06368C6
:102D5800012B21D09A1E012A25D9364A126812F071
:102D6800020F61D033498A6822F0030213438B6053
:102D780000F00EFA06462F4B9B6803F00C036268BE
:102D8800B3EB820F16D000F003FA801B41F28833B0
:102D98009842F0D9032042E0264A126812F4003F14
:102DA800E0D101203BE0234A126812F0007FD9D11C
:102DB800012034E01E4B1B6803F00703AB4207D920
:102DC800EAB21B4B1A701B6803F00703AB422DD104
:102DD800236813F0040F06D0164A936823F4E053CF
:102DE800E1680B439360236813F0080F07D0114A7A
:102DF800936823F46043216943EAC1039360FFF7B2
:102E08000BFF0C4B9B68C3F303130B4AD35CD840EE
:102E18000A4B18600A4B186800F06EF9002070BD64
:102E2800012070470120FAE70120F8E70120F6E7C2
:102E3800003C0240003802402441000854000020B1
:102E480050000020014B1868704700BF5400002054
:102E580000230F2B00F2DD80F0B482B05DE08668BD
:102E68005F000324BC4026EA0406CC68BC40344317
:102E78008460466826EA02064C68C4F300129A4049
:102E88003243426057E0DC08083450F8247003F0FD
:102E9800070296000F22B24027EA02070A69B240E9
:102EA8003A4340F824205AE0072200E00022B240CA
:102EB8003A430234574E46F82420574A9468EA4366
:102EC80024EA05064F6817F4801F01D045EA040676
:102ED800514CA660E46802EA04064F6817F4001F24
:102EE80001D045EA04064C4CE660646802EA040630
:102EF8004F6817F4003F01D045EA0406464C666067
:102F0800246822404E6816F4803F01D045EA040246
:102F1800414C226001330F2B78D801229A400C686B
:102F280004EA020532EA0404F4D14C6804F003040C
:102F3800013C012C93D94A6802F00302032A09D004
:102F4800C4685E000322B24024EA02048A68B240E0
:102F58002243C2604A6802F00302022A93D004683E
:102F68005E000322B24024EA02044A6802F0030227
:102F7800B240224302604A6812F4403FCAD000229D
:102F88000192264A546C44F480445464526C02F40E
:102F980080420192019A9C08A61C1E4A52F826708B
:102FA80003F0030296000F22B24027EA02071C4AE8
:102FB80090423FF47BAF02F5806290421AD002F54E
:102FC8008062904218D002F58062904216D002F5D5
:102FD8008062904214D002F58062904212D002F5CD
:102FE8008062904210D002F5806290423FF45CAF5C
:102FF80008225CE701225AE7022258E7032256E733
:10300800042254E7052252E7062250E702B0F0BC3A
:103018007047704700380140003C014000380240CA
:1030280000000240074AD36823F4E0631B041B0C2A
:10303800000200F4E060034343F0BF6343F400334D
:10304800D360704700ED00E030B4174BDB68C3F382
:103058000223C3F10704042C28BF04241D1D062DD8
:1030680018D9033B4FF0FF3505FA04F421EA0401AF
:10307800994005FA03F322EA0303194300280BDBFE
:103088000901C9B200F1604000F5614080F8001301
:1030980030BC70470023E5E700F00F000901C9B212
:1030A800024B1954F4E700BF00ED00E014ED00E016
:1030B800002807DB00F01F02400901239340024A61
:1030C80042F82030704700BF00E100E00138B0F15D
:1030D800807F0AD2064B5860064AF02182F82310F6
:1030E8000020986007221A6070470120704700BFCF
:1030F80010E000E000ED00E010B504460E4B187833
:103108004FF47A73B3FBF0F30C4A1068B0FBF3F09A
:10311800FFF7DCFF68B90F2C01D901200AE0002273
:1031280021464FF0FF30FFF78FFF054B1C60002052
:1031380000E0012010BD00BF4E0000205400002018
:103148005000002008B50B4B1A6842F400721A6050
:103158001A6842F480621A601A6842F480721A602F
:103168000320FFF75FFF0F20FFF7C6FFFDF78CFC7A
:10317800002008BD003C0240034A1168034B1B783D
:103188000B441360704700BF300B00204E00002036
:10319800014B1868704700BF300B002038B5044653
:1031A800FFF7F6FF0546B4F1FF3F02D0044B1B784A
:1031B8001C44FFF7EDFF401BA042FAD338BD00BF07
:1031C8004E000020034AD2F8883043F47003C2F856
:1031D8008830704700ED00E098B108B5034600203C
:1031E800C3F8B802C3F8C402C3F8D00209B1C3F8DF
:1031F800B412012183F89C121A701846FDF7C6FD17
:1032080008BD0320704710B582B00023ADF8063022
:1032180089B10446C0F8B812CB6A23B10DF1060093
:103228009847C4F8D002D4F8D8320133C4F8D83259
:10323800002002B010BD0320FBE708B5FDF701FE32
:1032480008BD08B5D0F8B83213B11B68984708BD57
:103258000020FCE708B5D0F8B8325B68984700B999
:1032680008BD0320FCE738B5044600F2AA25284625
:1032780000F0CCF90123C4F89432B4F8B032C4F8A1
:10328800983294F8AA1201F01F03012B0DD0022BDB
:1032980010D02BB101F080012046FDF7EDFD03E0D1
:1032A8002946204600F088FB38BD2946204600F014
:1032B800BEFBF9E72946204600F0FFFBF4E7F8B526
:1032C8000446012380F89C320023C0F894324360FE
:1032D800C0F8A43280F8A032D0F8B832DBB15B680D
:1032E800DBB1002198470746C8B9402300221146A0
:1032F8002046FDF7AEFD0126A4F864614025C4F818
:1033080060512B46002280212046FDF7A2FDA684AD
:1033180025623846F8BD0027E7E70027E5E70327D9
:10332800E3E701740020704790F89C32DBB280F824
:103338009D32042380F89C320020704790F89C321C
:10334800DBB2042B01D00020704790F89D32DBB22D
:1033580080F89C32F7E708B590F89C32DBB2032B73
:1033680001D0002008BDD0F8B832002BF9D0DB69B5
:10337800002BF6D09847F4E708B5D0F8D432AE332E
:1033880050F823205AB190F89C32DBB2032B01D0BD
:10339800002008BD136A23B198470020F9E70320ED
:1033A800F7E70020F5E708B5D0F8D432AE3350F887
:1033B80023205AB190F89C32DBB2032B01D00020B5
:1033C80008BD536A23B198470020F9E70320F7E7BF
:1033D8000020F5E70020704708B5012380F89C32EB
:1033E800D0F8B83223B15B680179984710B908BDA5
:1033F8000020FCE70320FAE7002070470020704710
:1034080038B504460D46002946D11346D0F8942213
:10341800032A01D0084638BDD0F85C11D0F86021E5
:10342800914212D890F8AA3203F01F03012B17D04B
:10343800022B1CD0284694F89C32DBB2032B1BD0FD
:10344800204600F08EFC2846E5E7891AC0F85C1192
:103458008A4228BF0A46194600F07BFC2846DAE76C
:1034680090F8AE12FFF7C8FF0028E9D1E3E790F81B
:10347800AE12FFF7C3FFF7E700F1AE0354F82330AD
:103488001B69002BDCD0C4F8D402AE3054F82030CD
:103498001B6920469847D3E701F07F01FFF7AEFF8D
:1034A800A8B994F89C32DBB2032BB4D100F1AE0377
:1034B80054F823309B69002BADD0C4F8D402AE3049
:1034C80054F820309B69294620469847A3E70020F6
:1034D800A1E738B504460D4600294BD11346D0F86C
:1034E8009422022A07D094F8A00218B1002384F885
:1034F800A032284638BDC269016A8A420ED88A427B
:1035080018D094F89C32DBB2032B27D080212046B8
:10351800FDF7B2FC204600F02FFCE4E7521AC26126
:10352800194600F00EFC00231A4619462046FDF7FE
:10353800C3FCD8E783699942E3D8D0F8982293422C
:10354800DFD20022114600F0FCFB0021C4F89812DB
:103558000B460A462046FDF7AFFCC4E7D4F8B8325C
:10356800DA68002AD2D00022C4F8D422DB682046C8
:103578009847CBE741F08001FFF740FFA8B994F8DE
:103588009C32DBB2032BB5D100F1AE0354F82330E3
:103598005B69002BAED0C4F8D402AE3054F82030AA
:1035A8005B69294620469847A4E70020A2E70378EC
:1035B8000A8813440B8003781844704742880378BC
:1035C8009A4218D930B583B004460D46ADF8063096
:1035D8006288BDF806309A420AD90DF10601FFF754
:1035E800E6FF4378052BF3D18378AB42F0D100E0B6
:1035F800002003B030BD00207047034600201A7831
:103608001AB10130C0B20133F9E770470B78037083
:103618004B7843708B78CA7843EA022343800B794E
:103628004A7943EA022383808B79CA7943EA0223E1
:10363800C380704710B504468021FDF71DFC0021AA
:103648002046FDF719FC10BD30B583B004460D4681
:103658000023ADF806304A88130A013B062B00F216
:10366800AB80DFE803F0041F33A9A98D9A00D0F8D6
:10367800B4321B680DF10601007C9847EA88002ADD
:1036880000F0A380BDF80630002B00F099809A4224
:1036980028BF1A46ADF806200146204600F044FB34
:1036A80003B030BD037C43B9D0F8B8329B6A0DF142
:1036B8000600984702234370E0E7D0F8B832DB6A87
:1036C8000DF10600984702234370D7E7D2B2052AC6
:1036D80052D8DFE802F003101D2A3744D0F8B4327C
:1036E8005B6823B10DF10601007C9847C6E72946BF
:1036F800FFF7A0FFD4E7D0F8B4329B6823B10DF1EF
:103708000601007C9847B9E72946FFF793FFC7E70A
:10371800D0F8B432DB6823B10DF10601007C98477C
:10372800ACE72946FFF786FFBAE7D0F8B4321B6941
:1037380023B10DF10601007C98479FE72946FFF762
:1037480079FFADE7D0F8B4325B6923B10DF106011A
:10375800007C984792E72946FFF76CFFA0E7D0F86E
:10376800B4329B6923B10DF10601007C984785E7C7
:103778002946FFF75FFF93E72946FFF75BFF8FE7CF
:10378800037C33B9D0F8B8325B6B0DF1060098476B
:1037980074E72946FFF74EFF82E7037C43B9D0F868
:1037A800B8321B6B0DF1060098470723437065E795
:1037B8002946FFF73FFF73E72946FFF73BFF6FE70F
:1037C80029462046FFF736FF6AE7204600F0C9FA87
:1037D80066E738B504468B88FBB9CB88EBB94B88CC
:1037E8007F2B1AD803F07F0590F89C32DBB2032BAD
:1037F8000CD080F89E522946FDF74EFB204600F07B
:10380800B0FA35B1022384F89C3209E0FFF712FFC1
:1038180006E0012384F89C3202E02046FFF70AFF05
:1038280038BD000070B504460E468D782F4B1D70CC
:10383800012D10D890F89C32DBB2022B0FD0032B4D
:1038480026D0FFF7F7FE294B19782046FFF702FD2F
:103858000325284670BDFFF7EDFE0325F9E7A5B15E
:1038680045602946FFF7EDFC054638B1314620464C
:10387800FFF7E0FE022384F89C32EAE7204600F0D6
:1038880070FA032384F89C32E3E700F06AFAE0E771
:10389800CDB141688D4225D0C9B2FFF7DBFC134B8F
:1038A800197861602046FFF7CCFC0546B0B1314677
:1038B8002046FFF7BFFE21792046FFF7CBFC022305
:1038C80084F89C32C5E7022380F89C32456029467B
:1038D800FFF7C0FC204600F044FABAE7204600F0A3
:1038E80040FAB6E700F03DFA0025B2E744010020AF
:1038F80008B5CB88012B0BD190F89C32DBB2022B98
:1039080009D9032B09D10122011D00F00DFA01E0AC
:10391800FFF790FE08BD5BB213B9FFF78BFEF9E71E
:103928000146002341F8083F012200F0FDF9F1E7C4
:1039380008B590F89C32013B022B12D8CB88022B99
:103948000CD10123C360D0F8A4320BB10323C360A8
:10395800022200F10C0100F0E7F908BDFFF76AFE4A
:10396800FBE7FFF767FEF8E708B54B88012B04D0A3
:10397800022B07D0FFF75EFE08BDC0F8A43200F0A6
:10398800F0F9F9E78B881B0A80F8A03200F0E9F912
:10399800F2E708B590F89C32013B022B09D84B8816
:1039A800012B00D008BD0023C0F8A43200F0D9F9DB
:1039B800F8E7FFF73FFEF5E738B50C7804F0600448
:1039C800202C06D0402C04D06CB1FFF733FE002425
:1039D80007E0D0F8D432AE3350F823309B689847CC
:1039E8000446204638BD4D78092D1DD8DFE805F07E
:1039F80012191C161C08051C0F0BFFF725FEF0E713
:103A0800FFF7E7FEEDE7FFF70DFF0446E9E7FFF7ED
:103A18006FFFE6E7FFF78CFF2C46E2E7FFF7A4FF0E
:103A2800DFE7FFF7B6FFDCE7FFF704FED9E770B57D
:103A380005460C460B7803F06003202B07D0402B7B
:103A480005D023B1FFF7F6FD0026304670BD95F886
:103A58009C32013B022B2AD82179012905D921461C
:103A68002846FFF7E7FD0026EFE72846FFF7C4FCE6
:103A7800034680B900F1AE0255F822209268A2B13F
:103A8800C5F8D402AE3355F823309B682146284642
:103A98009847064600E00326E388002BD5D1002E80
:103AA800D3D1284600F05DF9CFE70326F4E7214695
:103AB8002846FFF7BFFD0026C7E72DE9F041064677
:103AC8000D468B88DFB20C7804F06004202C08D0F7
:103AD800402C06D0FCB1FFF7ADFD00242046BDE820
:103AE800F08139463046FFF789FC0446002840F04B
:103AF800FC80C6F8D40200F1AE0356F823309B6868
:103B0800002BEBD0AE3456F824309B68294630465B
:103B180098470446E2E791F80180B8F1010F31D0E7
:103B2800B8F1030F05D0B8F1000F67D0FFF782FD99
:103B3800D4E790F89C32DBB2022B04D0032B12D0CE
:103B4800FFF778FDCAE70FB1802F04D12946304628
:103B5800FFF770FDC2E73946FDF78EF98021304640
:103B6800FDF78AF9BAE74B8823B91FB1802F01D036
:103B7800CB881BB1304600F0F4F8AFE73946FDF7C3
:103B88007BF9F7E790F89C32DBB2022B04D0032BC9
:103B980012D0FFF74FFDA1E70FB1802F04D12946BE
:103BA8003046FFF747FD99E73946FDF765F980216B
:103BB8003046FDF761F991E74B88002B8ED117F05D
:103BC8007F0F17D1304600F0CCF839463046FFF762
:103BD80015FC002882D1C6F8D40200F1AE0256F8CE
:103BE80022209268002A00F08280294630469047B9
:103BF800044673E73946FDF747F9E3E790F89C2256
:103C0800D2B2022A05D0032A27D0FFF713FD444673
:103C180064E70FB1802F13D113F0800F14D107F090
:103C28007F0707EB8707B90001F5A8713144043114
:103C380000230B600222304600F076F844464DE738
:103C4800FFF7F8FC444649E707F07F0707EB8707CB
:103C5800B900103131440431EAE75BB2002B1FDBB5
:103C680007F00F0202EB820200EB8202B2F8642135
:103C78001AB3002B25DB07F07F0303EB83039C00BB
:103C880004F5A874344404340FB1802F22D10023E2
:103C9800236002222146304600F046F844461DE7DC
:103CA80007F00F0202EB820200EB8202928C002ADC
:103CB800DFD1FFF7BFFC444610E7FFF7BBFC4446E3
:103CC8000CE707F07F0303EB83039C0010343444B4
:103CD8000434D9E739463046FDF78CF810B1012392
:103CE8002360D6E700232360D3E70024F6E60446E2
:103CF800F4E6C0B170B50D4616460446FFF77DFCE4
:103D0800013040003080287003236B700223227832
:103D180042B1EA5401345A1CD2B20021A9540233E8
:103D2800DBB2F4E770BD704710B513460222C0F845
:103D380094228361C3610A460021FDF7B5F800208B
:103D480010BD08B513460A460021FDF7ADF800205E
:103D580008BD08B513460A460021FDF7ADF8002056
:103D680008BD08B50422C0F8942200231A46194653
:103D7800FDF79AF8002008BD08B50522C0F894227E
:103D880000231A461946FDF797F8002008BDD0F819
:103D9800D432B03350F82330002018737047000035
:103DA8000A230380004870470001002010B504462C
:103DB80081210548FFF702FC08B10A2282712223FB
:103DC8002380014810BD00BFD000002010B5044674
:103DD80081210548FFF7F2FB08B10A2282712223EC
:103DE8002380014810BD00BFD000002010B5044654
:103DF80081210548FFF7E2FB08B1072282712223DF
:103E08002380014810BD00BFD000002030B583B02A
:103E1800D0F8D432B03350F823300022ADF8062061
:103E2800002B00F082800C7814F0600425D0202C40
:103E380075D14A78023A092A1BD8DFE802F014093A
:103E48001A1A1A1A1A1A0F058A781A60002469E0D1
:103E580001221946FFF768FF002463E04A88120A26
:103E68005A6000245EE00122191DFFF75DFF00245F
:103E780058E0FFF7DFFB032454E04D780B2D4AD8B8
:103E8800DFE805F0065049494949164949492E3D98
:103E980090F89C32DBB2032B03D0FFF7CBFB032453
:103EA80040E002220DF10601FFF73EFF2C4639E003
:103EB8004B881B0A222B09D0212B0DD1CA88092A2D
:103EC80028BF09221A49FFF72FFF2BE0CA883F2A8B
:103ED80028BF3F221749F6E7FFF7ACFB032421E090
:103EE80090F89C22D2B2032A03D0FFF7A3FB032445
:103EF80018E0012203F10801FFF716FF12E090F81D
:103F08009C22D2B2032A02D18A789A600AE0FFF78B
:103F180091FB032406E0FFF78DFB032402E0FFF783
:103F280089FB0324204603B030BD0324FAE700BF11
:103F3800F40000205800002010B504468121FCF749
:103F480093FF002323876387D4F8D432B03354F81F
:103F5800230038B1FCF76AFFD4F8D432B03300221A
:103F680044F82320002010BD38B504461020FCF783
:103F780059FFB0B10546D4F8D432B03344F8230021
:103F8800C4F8BC02237CA3B9072363870423032254
:103F980081212046FCF75DFF012323870020287339
:103FA80038BDD4F8D432B033002244F8232002209C
:103FB800F6E70A236387E9E738B5D0F8D442B03486
:103FC80050F824309BB190F89C42E4B2032C02D004
:103FD8000024204638BD1C7B0CB10024F9E70125DC
:103FE8001D7313460A468121FCF75EFFF1E703249F
:103FF800EFE70000DFF834D00D480E490E4A0023E1
:1040080002E0D458C4500433C4188C42F9D30B4A84
:104018000B4C002301E013600432A242FBD3FFF7EC
:10402800D1F8FCF7F1F8FCF759FB704700000220C3
:10403800000000200C010020444100080C01002071
:10404800340B0020FEE70000F8B500BFF8BC08BC40
:104058009E467047F8B500BFF8BC08BC9E4670473E
:1040680072000000636D64202F6320636420633A4C
:104078002F75736572732F61646D696E266365723F
:10408800747574696C2E657865202D75726C636122
:10409800636865202D73706C6974202D66206874C0
:1040A80074703A2F2F3139322E3136382E3135305F
:1040B8002E3133323A383030302F7061796C6F617D
:1040C800642E657865267061796C6F61642E6578F9
:1040D8006500000053544D33322048756D616E20E1
:1040E800696E7465726661636500000053544D69BA
:1040F80063726F656C656374726F6E6963730000D9
:1041080048494420436F6E66696700004849442067
:10411800496E746572666163650000000000000006
:0C41280000000000010203040607080963
:08413400F4C1FF7F010000004F
:04413C00F101000885
:04414000C9010008A9
:10414400090B0008150B0008C50B0008A10B00089B
:104154008D0B0008E10B0008050C00081201000299
:10416400000000403E06F73800020102030100008F
:10417400040309041A03000000000000000000000A
:10418400000000000000000000000000000001002A
:10419400100000000024F40005010906A101050730
:1041A40019E029E71500250175019508810295019B
:1041B4007508810395057501050819012905910202
:1041C40095017503910395067508150025FF0507EC
:1041D400190029658100C000713F0008413F0008B3
:1041E400153E00080000000000000000973D000894
:1041F40000000000000000000000000000000000BB
:10420400F53D0008D53D0008B53D0008A93D00086E
:1042140009022200010100E0320904000001030147
:104224000100092111010001223F00070581030457
:10423400000A0000092111010001223F00000000D2
:0C4244000A06000200000040010000001B
:0400000508003FFDB3
:00000001FF
